{
  "_format": "hh-sol-artifact-1",
  "contractName": "healthme",
  "sourceName": "contracts/healthme.sol",
  "abi": [
    {
      "inputs": [
        {
          "internalType": "string",
          "name": "_patientName",
          "type": "string"
        },
        {
          "internalType": "string",
          "name": "_id",
          "type": "string"
        },
        {
          "internalType": "string",
          "name": "_documentName",
          "type": "string"
        },
        {
          "internalType": "string",
          "name": "_issuingAuthority",
          "type": "string"
        },
        {
          "internalType": "string",
          "name": "_selectedFile",
          "type": "string"
        }
      ],
      "name": "addDocument",
      "outputs": [],
      "stateMutability": "nonpayable",
      "type": "function"
    },
    {
      "inputs": [
        {
          "internalType": "string",
          "name": "_selectedFile",
          "type": "string"
        },
        {
          "internalType": "string",
          "name": "_id",
          "type": "string"
        }
      ],
      "name": "checkDocument",
      "outputs": [
        {
          "internalType": "bool",
          "name": "",
          "type": "bool"
        }
      ],
      "stateMutability": "view",
      "type": "function"
    },
    {
      "inputs": [
        {
          "internalType": "bytes32",
          "name": "",
          "type": "bytes32"
        },
        {
          "internalType": "string",
          "name": "",
          "type": "string"
        }
      ],
      "name": "documents",
      "outputs": [
        {
          "internalType": "string",
          "name": "patientName",
          "type": "string"
        },
        {
          "internalType": "string",
          "name": "id",
          "type": "string"
        },
        {
          "internalType": "string",
          "name": "documentName",
          "type": "string"
        },
        {
          "internalType": "string",
          "name": "issuingAuthority",
          "type": "string"
        },
        {
          "internalType": "uint256",
          "name": "issueDateTimestamp",
          "type": "uint256"
        },
        {
          "internalType": "bytes32",
          "name": "hashvalue",
          "type": "bytes32"
        },
        {
          "internalType": "bool",
          "name": "isAdded",
          "type": "bool"
        }
      ],
      "stateMutability": "view",
      "type": "function"
    },
    {
      "inputs": [],
      "name": "getDocuments",
      "outputs": [
        {
          "components": [
            {
              "internalType": "string",
              "name": "patientName",
              "type": "string"
            },
            {
              "internalType": "string",
              "name": "id",
              "type": "string"
            },
            {
              "internalType": "string",
              "name": "documentName",
              "type": "string"
            },
            {
              "internalType": "string",
              "name": "issuingAuthority",
              "type": "string"
            },
            {
              "internalType": "uint256",
              "name": "issueDateTimestamp",
              "type": "uint256"
            },
            {
              "internalType": "bytes32",
              "name": "hashvalue",
              "type": "bytes32"
            },
            {
              "internalType": "bool",
              "name": "isAdded",
              "type": "bool"
            }
          ],
          "internalType": "struct healthme.Docs[]",
          "name": "",
          "type": "tuple[]"
        }
      ],
      "stateMutability": "view",
      "type": "function"
    }
  ],
  "bytecode": "0x608060405234801561001057600080fd5b50611bff806100206000396000f3fe608060405234801561001057600080fd5b506004361061004c5760003560e01c80630c8a4d1014610051578063bec15bfd1461006d578063ccbee45c1461009d578063ef2d8700146100d3575b600080fd5b61006b600480360381019061006691906111c8565b6100f1565b005b610087600480360381019061008291906112cf565b610542565b6040516100949190611362565b60405180910390f35b6100b760048036038101906100b291906113b3565b610870565b6040516100ca97969594939291906114b6565b60405180910390f35b6100db610b02565b6040516100e8919061172b565b60405180910390f35b60008180519060200120905060001515600080838152602001908152602001600020866040516101219190611789565b908152602001604051809103902060060160009054906101000a900460ff16151514610182576040517f08c379a000000000000000000000000000000000000000000000000000000000815260040161017990611812565b60405180910390fd5b60006040518060e0016040528088815260200187815260200186815260200185815260200142815260200183815260200160011515815250905080600080848152602001908152602001600020876040516101dd9190611789565b908152602001604051809103902060008201518160000190816102009190611a3e565b5060208201518160010190816102169190611a3e565b50604082015181600201908161022c9190611a3e565b5060608201518160030190816102429190611a3e565b506080820151816004015560a0820151816005015560c08201518160060160006101000a81548160ff0219169083151502179055509050506102b86040518060400160405280601d81526020017f446f63756d656e74204164646564202d206865616c74686d652e736f6c000000815250610dd8565b6102fb6040518060400160405280600e81526020017f50617469656e74206e616d653a200000000000000000000000000000000000008152508260000151610e71565b61033e6040518060400160405280600c81526020017f50617469656e742049443a2000000000000000000000000000000000000000008152508260200151610e71565b6103816040518060400160405280600f81526020017f446f63756d656e74204e616d653a2000000000000000000000000000000000008152508260400151610e71565b6103c46040518060400160405280600c81526020017f497373756520446174653a2000000000000000000000000000000000000000008152508260800151610f0d565b6104076040518060400160405280601381526020017f49737375696e6720417574686f726974793a20000000000000000000000000008152508260600151610e71565b61044a6040518060400160405280600a81526020017f55706c6f616465643a20000000000000000000000000000000000000000000008152508260c00151610fa9565b60016040518060e0016040528089815260200188815260200187815260200186815260200142815260200184815260200160011515815250908060018154018082558091505060019003906000526020600020906007020160009091909190915060008201518160000190816104c09190611a3e565b5060208201518160010190816104d69190611a3e565b5060408201518160020190816104ec9190611a3e565b5060608201518160030190816105029190611a3e565b506080820151816004015560a0820151816005015560c08201518160060160006101000a81548160ff021916908315150217905550505050505050505050565b600080838051906020012090506000808281526020019081526020016000208360405161056f9190611789565b908152602001604051809103902060050154811480156105d1575060011515600080838152602001908152602001600020846040516105ae9190611789565b908152602001604051809103902060060160009054906101000a900460ff161515145b1561082657610698600080838152602001908152602001600020846040516105f99190611789565b9081526020016040518091039020600001805461061590611861565b80601f016020809104026020016040519081016040528092919081815260200182805461064190611861565b801561068e5780601f106106635761010080835404028352916020019161068e565b820191906000526020600020905b81548152906001019060200180831161067157829003601f168201915b5050505050610dd8565b61075a600080838152602001908152602001600020846040516106bb9190611789565b908152602001604051809103902060030180546106d790611861565b80601f016020809104026020016040519081016040528092919081815260200182805461070390611861565b80156107505780601f1061072557610100808354040283529160200191610750565b820191906000526020600020905b81548152906001019060200180831161073357829003601f168201915b5050505050610dd8565b61081c6000808381526020019081526020016000208460405161077d9190611789565b9081526020016040518091039020600201805461079990611861565b80601f01602080910402602001604051908101604052809291908181526020018280546107c590611861565b80156108125780601f106107e757610100808354040283529160200191610812565b820191906000526020600020905b8154815290600101906020018083116107f557829003601f168201915b5050505050610dd8565b600191505061086a565b6108646040518060400160405280600581526020017f4652415544000000000000000000000000000000000000000000000000000000815250610dd8565b60009150505b92915050565b600060205281600052604060002081805160208101820180518482526020830160208501208183528095505050505050600091509150508060000180546108b690611861565b80601f01602080910402602001604051908101604052809291908181526020018280546108e290611861565b801561092f5780601f106109045761010080835404028352916020019161092f565b820191906000526020600020905b81548152906001019060200180831161091257829003601f168201915b50505050509080600101805461094490611861565b80601f016020809104026020016040519081016040528092919081815260200182805461097090611861565b80156109bd5780601f10610992576101008083540402835291602001916109bd565b820191906000526020600020905b8154815290600101906020018083116109a057829003601f168201915b5050505050908060020180546109d290611861565b80601f01602080910402602001604051908101604052809291908181526020018280546109fe90611861565b8015610a4b5780601f10610a2057610100808354040283529160200191610a4b565b820191906000526020600020905b815481529060010190602001808311610a2e57829003601f168201915b505050505090806003018054610a6090611861565b80601f0160208091040260200160405190810160405280929190818152602001828054610a8c90611861565b8015610ad95780601f10610aae57610100808354040283529160200191610ad9565b820191906000526020600020905b815481529060010190602001808311610abc57829003601f168201915b5050505050908060040154908060050154908060060160009054906101000a900460ff16905087565b60606001805480602002602001604051908101604052809291908181526020016000905b82821015610dcf57838290600052602060002090600702016040518060e0016040529081600082018054610b5990611861565b80601f0160208091040260200160405190810160405280929190818152602001828054610b8590611861565b8015610bd25780601f10610ba757610100808354040283529160200191610bd2565b820191906000526020600020905b815481529060010190602001808311610bb557829003601f168201915b50505050508152602001600182018054610beb90611861565b80601f0160208091040260200160405190810160405280929190818152602001828054610c1790611861565b8015610c645780601f10610c3957610100808354040283529160200191610c64565b820191906000526020600020905b815481529060010190602001808311610c4757829003601f168201915b50505050508152602001600282018054610c7d90611861565b80601f0160208091040260200160405190810160405280929190818152602001828054610ca990611861565b8015610cf65780601f10610ccb57610100808354040283529160200191610cf6565b820191906000526020600020905b815481529060010190602001808311610cd957829003601f168201915b50505050508152602001600382018054610d0f90611861565b80601f0160208091040260200160405190810160405280929190818152602001828054610d3b90611861565b8015610d885780601f10610d5d57610100808354040283529160200191610d88565b820191906000526020600020905b815481529060010190602001808311610d6b57829003601f168201915b5050505050815260200160048201548152602001600582015481526020016006820160009054906101000a900460ff16151515158152505081526020019060010190610b26565b50505050905090565b610e6e81604051602401610dec9190611b10565b6040516020818303038152906040527f41304fac000000000000000000000000000000000000000000000000000000007bffffffffffffffffffffffffffffffffffffffffffffffffffffffff19166020820180517bffffffffffffffffffffffffffffffffffffffffffffffffffffffff8381831617835250505050611045565b50565b610f098282604051602401610e87929190611b32565b6040516020818303038152906040527f4b5c4277000000000000000000000000000000000000000000000000000000007bffffffffffffffffffffffffffffffffffffffffffffffffffffffff19166020820180517bffffffffffffffffffffffffffffffffffffffffffffffffffffffff8381831617835250505050611045565b5050565b610fa58282604051602401610f23929190611b69565b6040516020818303038152906040527fb60e72cc000000000000000000000000000000000000000000000000000000007bffffffffffffffffffffffffffffffffffffffffffffffffffffffff19166020820180517bffffffffffffffffffffffffffffffffffffffffffffffffffffffff8381831617835250505050611045565b5050565b6110418282604051602401610fbf929190611b99565b6040516020818303038152906040527fc3b55635000000000000000000000000000000000000000000000000000000007bffffffffffffffffffffffffffffffffffffffffffffffffffffffff19166020820180517bffffffffffffffffffffffffffffffffffffffffffffffffffffffff8381831617835250505050611045565b5050565b60008151905060006a636f6e736f6c652e6c6f679050602083016000808483855afa5050505050565b6000604051905090565b600080fd5b600080fd5b600080fd5b600080fd5b6000601f19601f8301169050919050565b7f4e487b7100000000000000000000000000000000000000000000000000000000600052604160045260246000fd5b6110d58261108c565b810181811067ffffffffffffffff821117156110f4576110f361109d565b5b80604052505050565b600061110761106e565b905061111382826110cc565b919050565b600067ffffffffffffffff8211156111335761113261109d565b5b61113c8261108c565b9050602081019050919050565b82818337600083830152505050565b600061116b61116684611118565b6110fd565b90508281526020810184848401111561118757611186611087565b5b611192848285611149565b509392505050565b600082601f8301126111af576111ae611082565b5b81356111bf848260208601611158565b91505092915050565b600080600080600060a086880312156111e4576111e3611078565b5b600086013567ffffffffffffffff8111156112025761120161107d565b5b61120e8882890161119a565b955050602086013567ffffffffffffffff81111561122f5761122e61107d565b5b61123b8882890161119a565b945050604086013567ffffffffffffffff81111561125c5761125b61107d565b5b6112688882890161119a565b935050606086013567ffffffffffffffff8111156112895761128861107d565b5b6112958882890161119a565b925050608086013567ffffffffffffffff8111156112b6576112b561107d565b5b6112c28882890161119a565b9150509295509295909350565b600080604083850312156112e6576112e5611078565b5b600083013567ffffffffffffffff8111156113045761130361107d565b5b6113108582860161119a565b925050602083013567ffffffffffffffff8111156113315761133061107d565b5b61133d8582860161119a565b9150509250929050565b60008115159050919050565b61135c81611347565b82525050565b60006020820190506113776000830184611353565b92915050565b6000819050919050565b6113908161137d565b811461139b57600080fd5b50565b6000813590506113ad81611387565b92915050565b600080604083850312156113ca576113c9611078565b5b60006113d88582860161139e565b925050602083013567ffffffffffffffff8111156113f9576113f861107d565b5b6114058582860161119a565b9150509250929050565b600081519050919050565b600082825260208201905092915050565b60005b8381101561144957808201518184015260208101905061142e565b60008484015250505050565b60006114608261140f565b61146a818561141a565b935061147a81856020860161142b565b6114838161108c565b840191505092915050565b6000819050919050565b6114a18161148e565b82525050565b6114b08161137d565b82525050565b600060e08201905081810360008301526114d0818a611455565b905081810360208301526114e48189611455565b905081810360408301526114f88188611455565b9050818103606083015261150c8187611455565b905061151b6080830186611498565b61152860a08301856114a7565b61153560c0830184611353565b98975050505050505050565b600081519050919050565b600082825260208201905092915050565b6000819050602082019050919050565b600082825260208201905092915050565b60006115898261140f565b611593818561156d565b93506115a381856020860161142b565b6115ac8161108c565b840191505092915050565b6115c08161148e565b82525050565b6115cf8161137d565b82525050565b6115de81611347565b82525050565b600060e0830160008301518482036000860152611601828261157e565b9150506020830151848203602086015261161b828261157e565b91505060408301518482036040860152611635828261157e565b9150506060830151848203606086015261164f828261157e565b915050608083015161166460808601826115b7565b5060a083015161167760a08601826115c6565b5060c083015161168a60c08601826115d5565b508091505092915050565b60006116a183836115e4565b905092915050565b6000602082019050919050565b60006116c182611541565b6116cb818561154c565b9350836020820285016116dd8561155d565b8060005b8581101561171957848403895281516116fa8582611695565b9450611705836116a9565b925060208a019950506001810190506116e1565b50829750879550505050505092915050565b6000602082019050818103600083015261174581846116b6565b905092915050565b600081905092915050565b60006117638261140f565b61176d818561174d565b935061177d81856020860161142b565b80840191505092915050565b60006117958284611758565b915081905092915050565b7f4365727469666963617465206d757374206e6f7420626520616c72656164792060008201527f61646465642e0000000000000000000000000000000000000000000000000000602082015250565b60006117fc60268361141a565b9150611807826117a0565b604082019050919050565b6000602082019050818103600083015261182b816117ef565b9050919050565b7f4e487b7100000000000000000000000000000000000000000000000000000000600052602260045260246000fd5b6000600282049050600182168061187957607f821691505b60208210810361188c5761188b611832565b5b50919050565b60008190508160005260206000209050919050565b60006020601f8301049050919050565b600082821b905092915050565b6000600883026118f47fffffffffffffffffffffffffffffffffffffffffffffffffffffffffffffffff826118b7565b6118fe86836118b7565b95508019841693508086168417925050509392505050565b6000819050919050565b600061193b6119366119318461148e565b611916565b61148e565b9050919050565b6000819050919050565b61195583611920565b61196961196182611942565b8484546118c4565b825550505050565b600090565b61197e611971565b61198981848461194c565b505050565b5b818110156119ad576119a2600082611976565b60018101905061198f565b5050565b601f8211156119f2576119c381611892565b6119cc846118a7565b810160208510156119db578190505b6119ef6119e7856118a7565b83018261198e565b50505b505050565b600082821c905092915050565b6000611a15600019846008026119f7565b1980831691505092915050565b6000611a2e8383611a04565b9150826002028217905092915050565b611a478261140f565b67ffffffffffffffff811115611a6057611a5f61109d565b5b611a6a8254611861565b611a758282856119b1565b600060209050601f831160018114611aa85760008415611a96578287015190505b611aa08582611a22565b865550611b08565b601f198416611ab686611892565b60005b82811015611ade57848901518255600182019150602085019450602081019050611ab9565b86831015611afb5784890151611af7601f891682611a04565b8355505b6001600288020188555050505b505050505050565b60006020820190508181036000830152611b2a8184611455565b905092915050565b60006040820190508181036000830152611b4c8185611455565b90508181036020830152611b608184611455565b90509392505050565b60006040820190508181036000830152611b838185611455565b9050611b926020830184611498565b9392505050565b60006040820190508181036000830152611bb38185611455565b9050611bc26020830184611353565b939250505056fea26469706673582212208e923d36f73c1bd83a4cea3fdae3ccbf70cae9af8317e11ba14c2a88b36cff9b64736f6c63430008120033",
  "linkReferences": {},
  "deployedLinkReferences": {}
}